:100000004046002029BF00008F2C0100FDBE0000EB
:10001000FDBE0000FDBE0000FDBE000000000000AF
:100020000000000000000000000000009DB700007C
:10003000FDBE00000000000039B70000FDBE00005A
:1000400059B800002B34010059B8000059B800001D
:1000500059B8000059B8000059B8000059B800005C
:10006000E133010059B8000059B80000153401000F
:1000700059B8000059B8000059B8000059B800003C
:1000800059B8000059B8000059B8000059B800002C
:1000900059B8000059B8000059B8000059B800001C
:1000A00059B8000059B8000059B8000059B800000C
:1000B00059B8000059B8000059B8000059B80000FC
:1000C00059B8000059B8000059B8000059B80000EC
:0C00D00059B8000059B8000059B80000F1
:1000DC0053B94AB9002908BF00281CBF4FF0FF31A3
:1000EC004FF0FF3000F00CB8ADF1080C6DE904CE08
:1000FC0007F0C4FADDF804E0DDE9022304B0704730
:10010C00704700BF0EB51048017A8DF80110C17907
:10011C008DF800108179ADF804104079ADF802002B
:10012C00684602F047FB08B1B32108E007480068B5
:10013C00029002A809F0D0F8002803D0B7210320C0
:10014C0000F0D4F80EBD0000140B0020800300005A
:10015C0010B528B11422044909F064FD002010BD2B
:10016C006FF0150010BD0000A003000070B56FF01B
:10017C002C05D0BB204C607808B1A81170BD09B318
:10018C006FF01500002AF9D01C4B891E06292DD2C0
:10019C00DFE801F00306162C191C1078587019E0D2
:1001AC0091780029EAD0D1780029E7D011781B2961
:1001BC00E4D351781B29E1D31068C3F8050009E09A
:1001CC001078987006E01088588103E01188FF2998
:1001DC00D4D8197301220949002007F09FFBB0F510
:1001EC00803F05DB6FF00B0070BDFFE72846FBE797
:1001FC000121A170F8E7000020000020140B002062
:10020C0010B5064C607820B102F03AFC207807F06B
:10021C00B5F900F0DDFD0020607010BD200000205D
:10022C0070B50C46050002D00CB1600702D06FF01F
:10023C00150070BD00F0C4F8A8B1284607F064F9A9
:10024C000A4D00220A492870204607F067FB09F086
:10025C00C9FA0021287802F0FDFBFFF753FF0120BB
:10026C006870002070BD4FF0FF3070BD2000002082
:10027C00140B002030B589B004000CD007F0ECF85A
:10028C004FF0FF3520B106F0A9FAB0F5FA7F05D989
:10029C00284609B030BD6FF01500FAE70F4D104835
:1002AC006C6000F039F900206870A87001461E22BD
:1002BC00684609F031FD1E220A49684609F0B2FC75
:1002CC001E226946084809F0ADFCEFF3108472B6A3
:1002DC0000F08CFD04B962B60020DAE720000020A3
:1002EC001101000082030000140B00200EB572B641
:1002FC00154A5568DDB1002203466E460A2403E018
:10030C00B0FBF4F0521CD2B20028F9D1B0540AE080
:10031C00D8B2B0FBF4F7B3FBF4F304FB1700521E96
:10032C00D2B23030B054002AF2D13046A847BFF3D5
:10033C004F8F06480168064A01F4E06111430160E1
:10034C00BFF34F8F00BFFDE7200000200CED00E055
:10035C000400FA05064810B581784078014302D0B4
:10036C004FF0FF3010BD02F09BFB002010BD0000D1
:10037C0020000020010000010100001B1B030200F3
:10038C001F0008000000000000000000000000003A
:10039C0000000000C593BAA9144D8D05304E9B92F8
:1003AC00D7711EE8AA02503C014A5268104700005F
:1003BC00300A0020014A926810470000300A0020E1
:1003CC000448416819B1806808B1012070470020C9
:1003DC0070470000300A002002490DC881E80D006A
:1003EC0000207047300A00207CB5214E0546001DC8
:1003FC0030601F4800F08EFF0446022804D0042C05
:10040C0007D0082C2DD030E01949284607F007FBFF
:10041C002BE03078072804D105213E2007F0EFFAB5
:10042C0050B11349284607F05FFBB0F5817F0FD31D
:10043C0072210820FFF75AFFB6F80300ADF8000050
:10044C0001A9684607F0F6FC0028D2D05321F0E74A
:10045C000028CED0A978287807F0D1FA0028C8D087
:10046C0003E00349284607F008FB20467CBD00004A
:10047C003C0A0020402803D2401EC1B2054805E0CA
:10048C00FF2805D04038C1B20248083007F085BCBF
:10049C000120704728000020401EC1B2014807F01F
:1004AC007CBC000038000020024902680A614068E8
:1004BC004861704728000020054902680A604068BE
:1004CC0042F48C220A60034A1043486070470000D3
:1004DC0028000020F807400207484FF0FF310022A7
:1004EC000160C90C416000F108011F200A604A60DC
:1004FC000831C1E9000270472800002010B5FFF751
:10050C00EBFF08F0B8FF04460248006800B18047D2
:10051C00204610BD400000200149086070470000D3
:10052C00400000202DE9F04104464FF08050D0F8F7
:10053C00A0701F4D1E4E103D10220021204609F0C8
:10054C00EBFB1022002104F1100009F0E5FB2868F8
:10055C00401C08D16868401C05D1A868401C02D119
:10056C00E868401C07D028686A68A968EB682061B5
:10057C006261A161E361002000F00AFD8743F80786
:10058C0013D13068401C08D17068401C05D1B0688C
:10059C00401C02D1F068401C07D032687068B1680A
:1005AC00F36822606060A160E3600020BDE8F08128
:1005BC009000001038B54FF0805104462248D1F815
:1005CC00A010214D0268143D521C04D14268D24344
:1005DC001204120C35D0C90733D001684068ADF84D
:1005EC000000C4F80110BDF80000A4F80500A079C3
:1005FC0040F0C000A0712868401C0CD06868401CFA
:10060C0009D0A868401C06D0E868401C03D0002024
:10061C0000F0BEFC40B110220021E01D09F07CFB73
:10062C0001202070002038BD2A686968A868EB6832
:10063C00C4F80720C4F80B10C4F80F00C4F813302A
:10064C00EEE70020EDE70000A4000010022101807D
:10065C00418000210171C52141714BF69321C1806C
:10066C000149816000207047A9144D8D2DE9F0419E
:10067C00114D012055F82030D3B11E79FF2E13D027
:10068C000022411E13D400BF55F8214024B1277914
:10069C00B74201D1A4782244491EF5D5FF2A06D9C8
:1006AC00FA211720FFF722FE0021197100E01A71C0
:1006BC00401EDFD5BDE8F0815000002030B5034668
:1006CC004FEA020003EB400464898C4209D09C7809
:1006DC00401CB0FBF4F504FB1500C0B29042F1D104
:1006EC00FF2030BD1CB504460022104664F31740B1
:1006FC00CDE900200BE000BFBDF80400214600F05E
:10070C0001F920B140F2D7211720FFF7EFFD684621
:10071C0000F0A8F80028EFD01CBD000070B505460D
:10072C00194850F8214064B3B5F5706F04D340F20A
:10073C007E211720FFF7DAFD2946204607F07AFCC8
:10074C000146FF2804D02046BDE8704007F086BC67
:10075C00A078B5FBF0F100FB1150C6B232464FF653
:10076C00F0712046FFF7AAFF0246FF2809D0B242DB
:10077C0001D00020E07029462046BDE8704007F00B
:10078C0053BC002070BD000050000020084A10B57A
:10079C0052F821400146204607F04CFC0146FF2848
:1007AC0004D02046BDE8104007F058BC002010BD16
:1007BC00500000202DE9FF410400184E0D46039413
:1007CC002AD03078022802D00020FFF7F3FF03A8CC
:1007DC0000F0BCF8124F2B78D7E90010BA6863F31D
:1007EC001F60CDE9001002926946002000F0D2F89B
:1007FC00D7E903106B787A6963F31F60CDE90010B9
:10080C0002926946012000F0C5F800F00BF8706800
:10081C0004B0001BBDE8F0810020D9E744000020A3
:10082C00700A000010B50E4C2078012813D0032854
:10083C0002D04FF4A37105E0D4E90101814204D048
:10084C0040F249111720FFF751FDFFF70FFF04206D
:10085C002070002010BD02202070606810BD0000C8
:10086C004400002010B5044680790E4951F8200050
:10087C00A8B14FF6F073E179827891420FD24A1CFD
:10088C00E27100EB410252899A42F4D000EB410232
:10089C005289A28007F0E2FB2060002010BD0220EC
:1008AC0010BD0000500000202DE9F04107464FF626
:1008BC00FF703880124850F82140ECB1A5782079AF
:1008CC00B0FBF5F105FB110632464FF6F0712046F0
:1008DC00FFF7F4FE0246FF280ED0A81B1044B0FB15
:1008EC00F5F105FB11002179084481B239802046CD
:1008FC00BDE8F04107F098BB0020BDE8F081000096
:10090C00500000202DE9F04106460F4850F82150C8
:10091C003146284607F08EFB0446FF2812D0D5F846
:10092C00060021464FEA3047284607F097FB014660
:10093C003046B84705EB44014FF6F0704881002073
:10094C00BDE8F0810320FBE75000002010B51049F2
:10095C000023B8B10A78022A02D04FF4837106E062
:10096C0003220A700268540704D040F20B111720BE
:10097C00FFF7BCFC4C684A6022448A600260CB6082
:10098C000B6110BD012008708B604B6010BD000026
:10099C00440000202DE9F041314D2E78012E04D079
:1009AC00032E02D04FF4907137E08A79082A02D9CD
:1009BC004FF4917131E0CB79002B4ED05F000A37A8
:1009CC006B68022A3B4401D9144601E04FF0020443
:1009DC002344A3F1010301D9144601E04FF00204B2
:1009EC00A4F1010423EA04038C881444A2F101024B
:1009FC00A4F1010424EA02044FF6FF72944202D3DC
:100A0C0040F22D1109E0032E23D1154EDA1B0C36C2
:100A1C0056F8207027B14FF499711720FFF766FC38
:100A2C0046F820201480C87990700120D070087A84
:100A3C00107108684FF6F076000CD0800888108191
:100A4C00002003E002EB4007401C7E81CF798742F7
:100A5C00F8D8C87900FB04306860BDE8F08100006C
:100A6C0044000020B98E0000E802080000000000DD
:100A7C00BB87000010010800FF0000002DE9FF4FAC
:100A8C00244C064681B020689A46934650B1017AB0
:100A9C00B14203D9406850F8260038B1032005B0A4
:100AAC00BDE8F08FA5211820FFF720FC194602980D
:100ABC0007F0F6FA804658460E9907F0E7FA054615
:100ACC0008EB0500001D87B22068A1463946006876
:100ADC0007F045FA04001AD0678025802946201DAE
:100AEC000E9D07465A460923009507F0E5F9208824
:100AFC00414638440A23029ACDF800A007F0DCF9ED
:100B0C00D9F80000406840F826400020C7E70120D3
:100B1C00C5E700005800002070B5144C23688BB159
:100B2C00197A814212D95A6852F8201071B10025F5
:100B3C0042F820504A88186807F069FA21680020AA
:100B4C000A7A0BE0C6211820FFF7D0FB032070BDFA
:100B5C004B6853F8203033B9401CC0B28242F7D8EE
:100B6C00086807F049FA002070BD0000580000200A
:100B7C002DE9F0410D46040090464FF0000606D0DA
:100B8C000027A00705D086211820FFF7AFFB01270F
:100B9C00F7E7CDB11146002007F012FA0C3000EB4C
:100BAC0085068FB90A4F04F10C00AA003C6025722F
:100BBC00606000EB850020600021606809F0ACF8F3
:100BCC004146386807F0FCF93046BDE8F08100007A
:100BDC00580000200A4910B502460968002059B196
:100BEC000B7A934207D9496851F82210002902D098
:100BFC0031F8040B084410BDFA211820FFF776FBDE
:100C0C005800002070B51E4B456804460022A1B167
:100C1C0001206070588881085FF0000004EB4003ED
:100C2C0004EB80061A83198400FB015373602318AC
:100C3C00401C1A750428F1D370BD62705FF000007F
:100C4C0004EB40010A830A8404EB80014A602118FA
:100C5C00401C0A750428F3D35888B0F5FF7F01D2E5
:100C6C00460800E0FF2607F08FFA656020842918FB
:100C7C00A1606684E560A0842161E68470BD0000FB
:100C8C005C0000202DE9F04158B100251144244EA0
:100C9C00CCB200273470810705D04E210920FFF714
:100CAC0025FB0125F2E71F2B04D84FF6FF7101EA53
:100CBC00830109E05900FF2B0CD903F1FF02B2EBC1
:100CCC00430F00D2114689B24FF6FC72C91C114079
:100CDC0035B107E07C22B2EB430FF4D37C21F2E771
:100CEC007060718004EB840207EBC203002276680B
:100CFC004FF0010C0DE04DB902EB820700EB030E37
:100D0C0006F837C006EBC707C7F804E0521C0B44C3
:100D1C00D2B2A242EFD3DB1D23F00700BDE8F08175
:100D2C005C00002070B5104A00205168127814E065
:100D3C0000EB800311F833306BB100EB800011EB4A
:100D4C00C0040CD00025A57001212046FFF75AFFE6
:100D5C002570204670BD401CC0B29042E8D3A9213A
:100D6C000920FFF7C3FA00005C000020044810B50E
:100D7C004088840807F008FA844200D3204610BD4E
:100D8C005C00002030B50D4901204860821EC1F87E
:100D9C0008230B4988600023C1F80032C1F80823EE
:100DAC00084C2360251D28608860C1F80823236047
:100DBC00286006490448086030BD000000E000408F
:100DCC0000F0004000F500400000F63F08F501403F
:100DDC0010B5FFF7D7FF07F0AEFA034901480860DA
:100DEC0010BD00000000F63F08F5014010B5FFF7FC
:100DFC00C9FF07F0A0FA00F081F803490148086028
:100E0C0010BD00000000F63F08F501402DE9F84F39
:100E1C008246374808F06BFEDFF8D4B028B10126C3
:100E2C000BF10100FF21017000E000264FF48075EA
:100E3C00304C4FF000082F1D01216160C4F8008177
:100E4C00C4F80481C4F804A52160DFF8AC901CE060
:100E5C00D9F80000C00618D50E2007F07BFAEFF386
:100E6C001080009072B603212046C4F80413294662
:100E7C0007F07DFA30B93946204607F078FA08B900
:100E8C0008F0CCFE009800B962B62946204607F05F
:100E9C006EFA28B93946204607F069FA0028D7D0EF
:100EAC003946204607F063FA0028C5D10025E6B97B
:100EBC009BF801008DF80000009800909DF8000050
:100ECC0008B1012500E000250BF1010181F800803B
:100EDC000321C4F80813C4F80481C4F800810E205F
:100EEC0007F038FA024808F019FE2846BDE8F88FDA
:100EFC006001002000E0004010ED00E010B5064855
:100F0C0008F008FE18B130211D20FFF7EFF9024858
:100F1C000021417010BD00006001002005498A8C41
:100F2C00824205D1002081F822004FF6FF708884A0
:100F3C0070470000320B00200A4A10B1012807D07C
:100F4C000EE0507860B1D2F802000860D08804E05E
:100F5C00107828B1906808609089888001207047CB
:100F6C000020704762010020084A012338B1012893
:100F7C0004D1137008689060888890817047537012
:100F8C000868C2F802008888D0807047620100208F
:100F9C00064910B1012802D005E0487800E0087835
:100FAC0008B101207047002070470000620100204A
:100FBC000149087670470000EA04002004494A7889
:100FCC00824203D9084490F84201704700207047D0
:100FDC00580B002004494A78824203D9084490F8FF
:100FEC004A01704700207047580B002004494A788A
:100FFC00824203D901EB0010823070470020704709
:10100C00580B0020054A01EB410102EB410102683B
:10101C00C1F80A218088A1F80E017047580B0020F6
:10102C0004494A78824203D901EB0010801C7047B6
:10103C0000207047580B002010B54FF4C5720021EA
:10104C00054808F069FE05480021017041704FF415
:10105C006171418010BD0000580B00205801002028
:10106C000B4B10B55C78844210D9184490F80201EF
:10107C00C0EBC000184490F852310B70D0F85311EB
:10108C001160B0F857019080012010BD002010BDF8
:10109C00580B002001484088704700005801002080
:1010AC0005494A78824203D9084490F83A0108B1BC
:1010BC000020704701207047580B002001494870F0
:1010CC0070470000580100200246094810B500780E
:1010DC000B4658B10748417841B10BB1801C01E077
:1010EC000448823001F030FD012010BD002010BDFD
:1010FC0058010020580B0020084910B50346002069
:10110C004A7806E00C1894F802419C4204D0401C2A
:10111C00C0B28242F6D8082010BD0000580B002047
:10112C00F0B51A4C0346002025782BE0C0EBC0022A
:10113C0022440F7892F853C192F8526187EA0C0757
:10114C005E403E444F7892F854C187EA0C073E4407
:10115C008F7892F855C187EA0C073E44CF7892F805
:10116C0056C187EA0C073E440F7992F857C192F8A2
:10117C00582187EA0C073E444F795740F74204D078
:10118C00401CC0B28542D1D80820F0BD580B0020BD
:10119C002DE9F047044600F180054FF0010971B1CB
:1011AC0004F1A6077E1E012929D002294ED003295D
:1011BC0023D139463046BDE8F04707F0A9B94FF4C2
:1011CC003A72002108F0A8FD85F825902449E966BB
:1011DC0020460721296710F8EC1F21F0040101704B
:1011EC00FE2085F8A6007F2068761E48A8600020A7
:1011FC00C5E90000202084F89402BDE8F0874FF088
:10120C000008A4F8268284F81B82216916480A4635
:10121C000844B0FBF1F0C4F8C40040F6B830A4F8B0
:10122C00C800638B284600F021F83946304607F099
:10123C006FF908F0CFFC18B1606901F02DFA10B10C
:10124C0084F80D82D9E784F80D92D6E70169B4F8D9
:10125C00CA32D4F8C4222846BDE8F04700F006B8DC
:10126C002F4904C400E0FCFF7FC3C90110B5002462
:10127C00A0F84C4030F8504F4C43B4FBF2F420F83B
:10128C00104940F27124634302EB03135B1EB3FB62
:10129C00F2F3C381094BB3FBF2F35B1C838203892A
:1012AC00634302EB03135B1EB3FBF2F3436003686F
:1012BC004B43B3FBF2F1016010BD0000005A620217
:1012CC00024991F9001007F018B9000070010020D4
:1012DC00014A107051707047700100200CB504A1C8
:1012EC00D1E90001CDE90001684600F005F80CBD1C
:1012FC00FFFFFFFF1F0000000549FF220A700A468E
:10130C000368C2F8013000795071002008707047F2
:10131C00720100202DE9F84FDFF874915D4F834680
:10132C004FF0010A002678683546007A8DF80000E7
:10133C00009800909DF80010102906D199F8131010
:10134C0019B1B9F81400002873D08DF80060684604
:10135C0000F0AAF89DF800100029F8D1002868D0F8
:10136C000446007A8DF80000009800909DF80080EB
:10137C0004F108000521009001704046B8F1080FF7
:10138C0042D007DC02280DD0032817D0B8F1040F87
:10139C0005D11DE00F2852D0B8F1100F57D040F2F4
:1013AC00472163E0626832B15946204690470420D9
:1013BC0060F3070510E04FF4E07157E0626822B16A
:1013CC00594620469047054606E040F2C9114DE0CB
:1013DC006168B1B120468847C5F30720012848D081
:1013EC00EFF3108072B6217A8DF8001000990091FD
:1013FC009DF80010052940D0A1B366F3070590B302
:10140C003FE040F2D31131E060685D4698B104884A
:10141C002046FFF7DFFB80B10B212970A5F80340B4
:10142C00A5F805A085F802A0002106F06EFD0420A9
:10143C003E61BDE8F88FE32118E0C52116E01521C7
:10144C008BF80010D4F80910CBF80310AFE7124852
:10145C00026822B1606838B1008859469047022072
:10146C003E61E6E709E00BE040F23D211020FEF77B
:10147C003DFF00984146017003E026723E61BEE7D5
:10148C0062B615F0FF0F3FF44EAFE8B2D1E70000A3
:10149C00800A0020AC0A002064000020014908707A
:1014AC0000F064B87801002038B5034617490020D5
:1014BC0018700869012440B1027A8DF80020009A56
:1014CC0000929DF80050002D11D14868027A8DF8D9
:1014DC000020009A00929DF80050012D06D0EFF3E9
:1014EC00108272B605684D6012B102E0002038BD62
:1014FC0062B6027A8DF80020009A00929DF8005096
:10150C000DB1086138BD1C7038BD0000AC0A00205C
:10151C0038B5D0B1416000F108010A70EFF31083C7
:10152C0072B6104C0460211F4A684AB1127A8DF8C9
:10153C000020009A00929DF80050012D00D10C6003
:10154C000A68106008602BB105E040F2722110208F
:10155C00FEF7CCFE62B604480078BDE8384005F0D2
:10156C00F1BF0000B00A00207801002010B5142251
:10157C000021084808F0D0FB06481222002114383C
:10158C0008F0CAFB034801210173011D4160016091
:10159C0010BD0000AC0A002070B50C4DA5F108047C
:1015AC0008210A48FEF706FF286810B96868002869
:1015BC00F6D000F013F8206000F010F8606021689D
:1015CC00002901D10028F4D070BD0000700000206B
:1015DC00014800F009B8000068000020014800F044
:1015EC0003B800007000002010B5D0E90021094BB1
:1015FC00094C53435443514081EAB21282EA4122CE
:10160C004FEAF141C0E9002143EAD46303EB8303C1
:10161C00184610BD6037EFC6BB79379EF8B507F09A
:10162C0068F804460D466A4600F062F808B10120DD
:10163C00F8BD0F48037841788B4201D10020F8BDEA
:10164C001A46416808E000BF01EBC206521E56E97B
:10165C00027CC6E9007CD2B29DF80060B242F3D89D
:10166C00F2B201EBC2015B1CC1E900450370DEE77D
:10167C007800002010B5420703D063214820FEF704
:10168C0035FE20B1034A5170506000201070C80024
:10169C0010BD00007800002038B507F02AF86A4623
:1016AC0000F026F8002814D00A4A1078401EC1B267
:1016BC0011709DF80000526808E000BF02EBC003F7
:1016CC00401CD3E90245C3E90045C0B28842F5D3BA
:1016DC00012038BD780000200149002008707047B7
:1016EC007800002001484078704700007800002006
:1016FC00F0B5204D002313702B7823B300245B1E10
:10170C00DBB2D5F804C00BE0E5186D080CEBC50690
:10171C00D6E900763F1A8E4101D22C4600E02B46CA
:10172C001D1B012DF0DC0CEBC406D6E9005680EA3B
:10173C00050781EA060E57EA0E0705D0451B71EB2B
:10174C00060503D2147010E0147011E00CEBC30505
:10175C00D5E9004580EA040681EA05073E4306D038
:10176C00001BA94100D35B1C13700020F0BD13704B
:10177C000120F0BD780000202DE9F0410446007CEA
:10178C0002283AD0032838D00026A8B3022836D035
:10179C00012708254FF000085EB194F8570004F1BA
:1017AC00580106F055FE0546082802D0FFF706FC46
:1017BC0060B137B357B1E07D00281BD0D4F81100CD
:1017CC00C4F85100B4F81500A4F85500267684F836
:1017DC0050706576FFF75EFC0E49A0FB012304F107
:1017EC00480007F0C4F884F85E800021204600F021
:1017FC00E3FB0120BDE8F08101E00126C5E70027ED
:10180C00C7E704F151010020FFF796FB0028DDD15A
:10181C00F0E7000040420F0030B50C468DB0054695
:10182C000146242202A808F0FDF90BA807F0FCF8E9
:10183C00A07A8DF8180020788DF80800B4F8010013
:10184C00ADF800009DF8000000F00101C0F340026B
:10185C0041EA4201C0F3800241EA8201C0F3C002B6
:10186C0041EAC201C0F3001241EA0211C0F3401276
:10187C0041EA4211C0F3801041EA8010ADF80A0031
:10188C00207D012806D0022804D040F2A621062093
:10189C00FEF72CFD8DF80C00617A0BA807F0ABF865
:1018AC00207D0121022802D1607D401CC1B2A07EA6
:1018BC00401CC2B20BA807F065F8BDF80A0000077F
:1018CC0001D5002020E00BA807F06EF8BDF80A1037
:1018DC00282200F06BFD40F2712100F2DD20B0FBFC
:1018EC00F1F04843D4F8021040F271230A0A40F296
:1018FC0071214A43D4F80510090A5943904201D882
:10190C00049204E0884201D8049000E00491A07C89
:10191C008DF81700207E012800D000208DF81400CF
:10192C00286B06F03FFC286B06F0E4FC242202A98D
:10193C00284608F077F90B98A862BDF83000A88506
:10194C00E07A68B102280BD05FF0010085F85700EF
:10195C00E068A865208AA5F85C000DB0002030BDB9
:10196C000020F3E70A4A10B500211170094C6060A1
:10197C0000F022F810B140F21D3104E0A0680028FC
:10198C0004D14FF448712D20FEF7B0FC10BD0000BF
:10199C00C00A00208000002002490148886070477E
:1019AC00A0230000800000200249086089680968B3
:1019BC000847000080000020084810B5007810B1DE
:1019CC000C24204610BD002418222146034808F0A0
:1019DC00A3F901F0B1F901F0CFF8F2E7C00A002049
:1019EC00044910B50978012901D100F051FC0020FF
:1019FC0010BD0000C00A002010B504468078C0F36A
:101A0C00C00058B13C23FF222046E16900F040FAA7
:101A1C000222044904F16A0006F03FFE012084F81A
:101A2C00690010BD078900002DE9F0410F00044644
:101A3C0023D004F12800054606F0DFFFB0B9A078EA
:101A4C00C0F3C00050B3284606F0AEFF0646284649
:101A5C0006F0D3FF301AC0B207F024F8014635481F
:101A6C00426811444160284606F0E5FF284606F01E
:101A7C00A7FF0146204606F06FFF2F4D94F85E60DD
:101A8C0000216868018006F029FF6088132813D0B4
:101A9C0009DC102836D0122809D131E02046BDE8E7
:101AAC00F04100F0F5BB15280FD01D280DD040F2E9
:101ABC004A612D20FEF71AFC0021686806F066FDCD
:101ACC000121686806F00AFF20E00121686806F031
:101ADC005DFD0121686806F001FF36B104F15F017C
:101AEC00686806F06EFD012106E004F15801686893
:101AFC0006F067FD94F85710686806F068FD05E07D
:101B0C00062100E00221686806F040FD204600F046
:101B1C001FFC60881D2807D0152805D094F83820A4
:101B2C00616B686806F022FD39462046BDE8F0413D
:101B3C0000F084BAC00A0020800000202DE9F0419A
:101B4C002A4D2978022905D02978032902D040F69C
:101B5C00EF4121E0264C0027616891F800C00CF0A1
:101B6C000F0638B32068093100F1510390F850206A
:101B7C004FEADC1006F00AFCE0B13946606806F06A
:101B8C00E5FCB8B12A7820683146022A07D02A78B9
:101B9C00032A04D040F6C8412D20FEF7A7FBA2680B
:101BAC002B7852696FF0070606EB8303D2589047E7
:101BBC00064600E00126A87B18B101F0BDF800F044
:101BCC00DBFF002E0FD0206806F082FF30B101F051
:101BDC00D5F8A0688068BDE8F04100472068BDE8F2
:101BEC00F04100F055BBBDE8F0810000C00A0020B8
:101BFC008000002010B5032902D005290AD102E08B
:101C0C0000F06CFB03E00449096809B1884708B18E
:101C1C00002010BD012010BD8C000020094A0300DB
:101C2C00106801D000F034BB002909D09168064A35
:101C3C00096912786FF00F0303EB82028958084789
:101C4C007047000080000020C00A002070B50446D8
:101C5C004088102819D0104DA87B20B100F0ACFFA3
:101C6C00402001F077F80D48406801F0ABFAA078FD
:101C7C00400704D400212279084601F02DFB0020F6
:101C8C0001F072F90220287070BD2046BDE870404A
:101C9C000121FFF7C9BE0000C00A0020800000200F
:101CAC0010B500F027F8114C206806F011FF002841
:101CBC0020680BD00E490A78022A0BD00A78032A26
:101CCC0008D040F6FA312D20FEF710FBBDE810408D
:101CDC0000F0DEBAA2680978D2686FF0070303EB54
:101CEC0081015158BDE810400847000080000020D9
:101CFC00C00A0020054810B5807B002805D001F0F3
:101D0C001BF8BDE8104000F037BF10BDC00A002022
:101D1C002DE9F041584D044686B02878E8BB207870
:101D2C00FF284BD04FF00008A5F80C80C5F80480B4
:101D3C0085F8018085F8028084F869804F4B504EFD
:101D4C000FCB8DE80F00B06840680390684601F037
:101D5C0003F901F091F900F0EFFF00F00DFF494895
:101D6C0001F0D8FA484801F0DFFA04F128000746E0
:101D7C0006F061FE384606F023FE0146204606F0CA
:101D8C00EBFD94F90E0001F0FBF92179002001F034
:101D9C007FF80121A860A8B100E00FE004F1340144
:101DAC00206B06F06EFA074604F13C01206B06F03E
:101DBC006BFA4FB194F8201051B905E00C2006B025
:101DCC00BDE8F081297055E020B194F8210008B1EC
:101DDC00012700E00027207E10B9A07840071CD511
:101DEC00D4E912106FF00042504070EA010106D0A5
:101DFC0007F0DAFDD4E91223801A994100D267B1B9
:101E0C00FFF748F92149A0FB012304F1480006F033
:101E1C00AEFD0121204600F0CFF87068C01C06F022
:101E2C000AFBA873A078C00724D04046414660F353
:101E3C001741CDE90481FF20E873E66906F10A0732
:101E4C0013E0049CB44210D0727A607A3B4604F1E1
:101E5C000A0106F09BFA40B1A078E873D4F80300AD
:101E6C002861B4F80700A88204E004A8FEF7FAFC85
:101E7C000028E6D00020A2E7C00A00208023000042
:101E8C0080000020D6BE898E5555550040420F006B
:101E9C0070B5044680F873300888A4F87400FF20ED
:101EAC0084F891004FF6FF7016460D46A4F8920088
:101EBC00002B43D1286906F0D5FAA4F88A00288BA8
:101ECC00A4F88C00688BA4F88E0095F80E0284F8A8
:101EDC009000207E002188B194F8500001280DD18B
:101EEC0094F85620B0EB921F08D1D4F85100C4F8E6
:101EFC007E00B4F85500A4F8820003E0C4F87E100C
:101F0C00A4F882101548FF2E40680278C2F38012A4
:101F1C0084F8772018D050F8031FC4F884108088F8
:101F2C00A4F8880004F17802511E3046FFF798F8A7
:101F3C0028B114F8770F40F00200207070BD40F605
:101F4C004D412D20FEF7D2F950F8032FA26780885F
:101F5C00A4F87C0044F8841FA18070BD8000002090
:101F6C0010B50446FFF7D4FE002808D104480078C9
:101F7C00012803D000212046FFF756FD002010BD9C
:101F8C00C00A00200A4810B50A49046808780028DD
:101F9C000CD00878022802D00878032801D1FFF76A
:101FAC00A9FE2046BDE8104000F072B910BD00003B
:101FBC0080000020C00A00202DE9F041044688462C
:101FCC00407EFFF713F80546207E012688B185B1C7
:101FDC00607EFEF7F3FF60B904F1510184F85060A4
:101FEC0042460F46284606F0F1F9617E3846FFF767
:101FFC0009F8A07840071DD5607EFFF711F80500A1
:10200C0018D0607EFEF7E6FF002813D184F85E60DE
:10201C0004F15F0142460C46284606F0D7F92146EA
:10202C00054C606806F0CDFA6068BDE8F04101210E
:10203C0006F0CDBABDE8F081800000202DE9F0411A
:10204C00044629480D46406801F0BCF8274E042090
:10205C00307055B36088102823D004F128008046D6
:10206C00B56806F0A1FC0746404606F0C6FC381AD7
:10207C00401EC0B26188282200F0B8F90544A0784F
:10208C00C0F3C00030B17068054406F00FFD284461
:10209C00C4F8D00022792946002001F0ABF820B911
:1020AC000CE02179002000F0B9FE6088132811D0D3
:1020BC0007DC102815D0122807D10BE040F665512B
:1020CC0005E0152806D01D2804D040F679512D20A6
:1020DC00FEF70CF92279BDE8F0410121002001F056
:1020EC00FBB8BDE8F081000080000020C00A002091
:1020FC0038B5044690F8B6000B468DF800000098F1
:10210C0000909DF8000000282ED1207884F8B700AC
:10211C00FF2B12D004F1B902511E1846FEF7A0FF96
:10212C0030B194F8B80040F0020084F8B80013E025
:10213C0040F6C2712D20FEF7D9F80C4840680178A2
:10214C00C1F3801184F8B810D0F80310C4F8B9109A
:10215C00B0F80700A4F8BD0004F1AE00BDE83840AB
:10216C000222034906F099BA38BD00008000002015
:10217C00518900002DE9FE4316460446032904D07C
:10218C0094F8680008B1012000E000200025032924
:10219C0003D00127052905D008E0A1780227C1F357
:1021AC00400101E0A178C90700296BD0002869D152
:1021BC003548DFF8D890807B80B106F03FF930705D
:1021CC00FF2814D0C0B26A4602A9FEF749FF48B1F5
:1021DC0069469DF8080006F085FA05463078FF2818
:1021EC0005D00DE040F645712D20FEF77FF8D9F8AB
:1021FC00041011F8030BC0F3801006F073FA0546B7
:10220C00D9F8041094F8572004F1580311F8030B73
:10221C00C0F3801006F0BAF8D9F80410804611F813
:10222C00030BC0F3801006F013F98146FEF738FF5C
:10223C0038B14846FEF7F4FE18B14846FEF7CAFE20
:10224C0038B100213078FF280CD0B8F1000F05D13F
:10225C0001E00121F6E7627E824201D1012003E018
:10226C00002001E028EA0100A278520701D530B91C
:10227C0008E039B91DB9E07B08B1B84202D10120A0
:10228C00BDE8FE830020FBE7C00A00208000002090
:10229C0070B50446C08D104D401CE085A87B00260F
:1022AC0020B100F049FD00F067FCAE732E7094F87D
:1022BC00690008B101210AE0607B38B1E18D8842E8
:1022CC0004D80121204606F015FC70BD00212046E3
:1022DC00BDE8704006F00EBCC00A0020F8B50446FC
:1022EC00FF208DF8000001256A4603212046FFF7E8
:1022FC0041FFE8B1207B20B19DF800102046FFF78C
:10230C00F7FE0D4E002170680180042106F03EF9A5
:10231C00204600F01DF894F84020E16B706806F040
:10232C006CF9064905200870706800F04BFF00E05E
:10233C0000252846F8BD000080000020C00A0020BF
:10234C00024801210068FFF76FBB000080000020ED
:10235C0070B5074D044600F15101686806F03EF96E
:10236C0094F850106868BDE8704006F03DB9000064
:10237C0080000020AD1C0000491B0000291C00003F
:10238C0000000000011C0000591C0000FB8800002C
:10239C00018900006D1F0000911F00004D230000FB
:1023AC009C230000942300009023000010B5421ED3
:1023BC00022A01D9CA2109E0401E102909D012298C
:1023CC000CD013290AD0152905D0D8212F20FDF7C0
:1023DC008DFF054904E00449891D01E00249891F6C
:1023EC0031F8100010BD0000D08A0000421E10B55C
:1023FC00D2B2012A03D91D2901D0EE210DE01329F7
:10240C0013D004DC10290BD0122904D10DE01529AE
:10241C0008D01D290ED04FF481712F20FDF766FFD7
:10242C00074804E00648083001E00548001D30F874
:10243C00120010BD40F25A3110FB01F010BD00002B
:10244C00BE8A00002DE9F041044690F8E0001646E3
:10245C000F4600285ED121464F4803F0DFFC0546AD
:10246C00202857D05022002104F1C00007F054FC62
:10247C0084F8C0500125C4F8C47084F8E05037B11A
:10248C00FFF7ACF800F00700401C87F83C02204630
:10249C0006F03BFCA4F8F000022084F8F200A846F9
:1024AC0084F8F350002504F8E85F04F0E7F80746D9
:1024BC0007F071FA2189E83C884200D80846384474
:1024CC00CF3087B2204606F0D3F930B307F070F95D
:1024DC0000F5CD6081B2304604F0C6F93044C4F842
:1024EC00EC00883407F060FAC0196941C4E91C019A
:1024FC0084F8408024F8665C012006F0D3FA00F5DD
:10250C008B70301A60644FF0FF304108C4E91E0133
:10251C00883C25E00C20BDE8F0810021204606F027
:10252C00C1FBDFF87880C4F8EC000020B8F8041088
:10253C0049B1618C39B1FFF751F8B8F80410B0FB10
:10254C00F1F201FB1200074407F02EFAC0196941A1
:10255C00C4E93E01BEB1801951EB0501C4E940014B
:10256C0094F8C00004F1E80106F0CDFB78B1D4E991
:10257C003E01C4E93601A4F8E2500021204606F0E1
:10258C00A5F90020C7E74FF0FF304108E6E74FF40C
:10259C00F6713020FDF7AAFEF98D000090000020A6
:1025AC0001498880704700009000002005480021F8
:1025BC00017001228270417042F21071818006F02C
:1025CC00D9BA000090000020014908707047000043
:1025DC00900000202DE9FC41174D0120687000246B
:1025EC004FF6FF760BE00021FEF7D0F807000CD079
:1025FC0097F8940203F0FAFA384606F0EAFB204604
:10260C0064F31740CDE900400EE04FF49171302097
:10261C00FDF76CFE009838B190F89412202903D085
:10262C000088B042DFD104E06846FEF71BF90028B1
:10263C00F0D06C70BDE8FC819000002070B544684F
:10264C000D2204F59875002104F16F0007F064FB6E
:10265C004FF4A3700021A4F844110155A5F81710EC
:10266C00697608465FF07F0104EB4002401CC0B263
:10267C0082F874100228F7D394F96E10204606F0F5
:10268C0032FC0020FF212218401CC0B282F87710C7
:10269C000228F8D370BD0000F0B56FF01F02010CDA
:1026AC0002EA90261F25A1F5AA4054380DD0A1F5B9
:1026BC00AA40553809D0A1F52850AA3805D0A1F563
:1026CC002A40AA3801D0012000E000200022134645
:1026DC004FEA020482EA0107FF431F437F1C0FD01D
:1026EC0006F00107520842EAC73205F001075B0801
:1026FC0076086D08641C43EAC733162CEAD3F0BD88
:10270C000020F0BD03494A880280097881700020BE
:10271C0070470000800A00202DE9FC410F46054659
:10272C00067806F039FF00280ED1284606F00EFF79
:10273C00002809D101213046FEF728F8040005D005
:10274C0006F015FA70B10C20BDE8FC810121304671
:10275C00FDF7E4FF040013D0154890F90010204653
:10276C0006F02AF8204606F08DF83870E8742946F1
:10277C002046FFF751F80646687EB8B116B115E051
:10278C000720E1E700226846216B05F00EFD0022D0
:10279C000121206B05F083FD04226846216B05F0B6
:1027AC0004FD00221146206B05F079FD3046CBE785
:1027BC00A4000020017871B1417861B141881B29D6
:1027CC0009D381881B2906D3044902680A608088D2
:1027DC00888000207047122070470000800A00207B
:1027EC00006840F2E241884203D30349886000202C
:1027FC007047122070470000800A0020034AD2E97B
:10280C00001201604260002070470000582A00004E
:10281C00024940F6A660886006F032BE800A0020AD
:10282C0070B586B0044600F05FF9400940EAC1601B
:10283C002D4EC00704F12C0502D07188B08801E040
:10284C001B210846E984288500F04EF988074FF0D3
:10285C00010505D58DF8005068460194FFF7EEFE92
:10286C00B068E06241F64C5121612188ADF804104A
:10287C00B17B8DF80610F17B8DF80710318AADF81D
:10288C00081004A90091284603AB01AA214606F0C2
:10289C00D0FE38B120880021FEF734F808B340F29E
:1028AC007D511BE09DF80C008DF814009DF8100074
:1028BC008DF81500BDF80800ADF8160005A92046E6
:1028CC0005F0D6FD707800903378B2887188208836
:1028DC00FEF7D4F8002805D04FF4B1613920FDF78C
:1028EC0005FD092006B070BD800A002010B501213D
:1028FC000020FDF74BFF04000AD10121FDF70EFF6C
:10290C00040007D0064890F90010204605F054FF4B
:10291C00204610BD4FF44C713920FDF7E7FC000048
:10292C00A4000020F8B50C46054605F0AEFF58B1E2
:10293C00284605F09DFF48B1B4F80100122108B1FA
:10294C00802803D90846F8BD4221FBE7284605F04C
:10295C0082FF20B1284606F00AF930B901E00C21BB
:10296C00F0E7284605F004FF08B10C20F8BD284616
:10297C00FEF702FF10B3B4F8016042F21070464348
:10298C00E178284605F05EFF284605F06DFFB8B1EA
:10299C0000216846FDF788FF04001BD00021FEF7DC
:1029AC00F7FBBDF8000020802146284605F082FF89
:1029BC00284605F061FF78B1012111E01220F8BD25
:1029CC00324600212846FFF73DFD0028F7D041F2A2
:1029DC00697112E00D20F8BD284605F069FF01462B
:1029EC002046FFF71DFF0028F5D132462146284628
:1029FC00FFF728FD20B141F28C713920FDF776FCF0
:102A0C000448836823B1002204F599712046984745
:102A1C000020F8BDA400002010B50A4800210A4B84
:102A2C00C17481821B221A804FF4A4745C80817360
:102A3C00C17303230370022343704280828081742C
:102A4C00017310BD800A0020A60000200D02110D9C
:102A5C005900021110B5FEF721FD054C606806F017
:102A6C009EFEFFF7D5FEFEF797FD0120207010BDEE
:102A7C00B00000200148007870470000B000002032
:102A8C0010B5064CA06806F08AFEE06806F087FEDA
:102A9C0006F0F6FC0020207010BD0000B0000020F5
:102AAC0010B50549054806F06DFE0448BDE8104018
:102ABC000349001D06F066BEC0000020B4000020D3
:102ACC00C80000200148407870470000B00000208A
:102ADC0010B5FEF761FFFFF769FDBDE81040014836
:102AEC00FEF740BFE20C00200149D1E9000170471C
:102AFC0000000020064801880079020642EA1120F5
:102B0C0000F001000018C0B240F001007047000056
:102B1C000000002010B503F061FE0022084B1146A6
:102B2C0033F82140844203D303EB8100827803E025
:102B3C00491CC9B20C29F3D30248027010BD000025
:102B4C00C09700007901002070B5054616460C466A
:102B5C00022000F0BDF806490120F61E0870054859
:102B6C000660044808380560001F046070BD000052
:102B7C007A01002010F5004010B50C4C207880B183
:102B8C000B494FF40000086000F06AF8002120B1F6
:102B9C00012060700748006801E061701020A0708F
:102BAC002170BDE81040002000F092B87A0100209E
:102BBC0008F5014000F4004010B5022000F088F840
:102BCC0004490120087000F059F803494FF4000043
:102BDC00086010BD7A01002004F501400348002173
:102BEC000170417010218170704700007A01002043
:102BFC00074810B5017841B100F032F818B105481A
:102C0C000068C0B210BD102010BD807810BD00004F
:102C1C007A01002000F40040084810B5017859B141
:102C2C000748D0F8000128B100F00CF8002800D0BB
:102C3C00012010BD022010BD407810BD7A0100208B
:102C4C0000F000400548D0F8041111B1D0F808018B
:102C5C0008B10020704701207047000000F00040D0
:102C6C00054810B5D0F8000120B1FFF7EBFF08B113
:102C7C00012010BD002010BD00F0004004480021D0
:102C8C00C0F80011C0F80411C0F80811704700001A
:102C9C0000F0004070B5054D0024287810B100F00C
:102CAC000FF82C706C70AC7070BD00007D010020B2
:102CBC000248002101704170817070477D01002035
:102CCC0002490148086070470000020208F5014003
:102CDC0010B5044600F020F8002C0ED00B4A0B481F
:102CEC000B491432012C05D0022C07D082213D2037
:102CFC00FDF7FCFA02230360116010BD032303608F
:102D0C00116004494FF40000086010BD00F500404C
:102D1C00E60E002004F50140054810B500210160C5
:102D2C000160FFF7B7FF03494FF40000086010BDC6
:102D3C0000F5004008F501400548D0F8001221F0DC
:102D4C004001C0F800120021C0F860157047000067
:102D5C00001000400449C1F86005D1F8000240F0B1
:102D6C004000C1F800027047001000400249085CA6
:102D7C0000F51660704700005E390000F8B5244C71
:102D8C00D4F8040310F0100F01D0012700E0002745
:102D9C001020C4F808030220C4F800021D480025C6
:102DAC001D4980F82D504FF460200860D4F8500570
:102DBC004FF4887610F0FF0F19D0FF208DF800002B
:102DCC00C4F810510120206105E000BF9DF80000FF
:102DDC00401E8DF800009DF8000028B131462046B9
:102DEC0006F048FD0028F1D09DF8000058B100F025
:102DFC00CDFBC4F8105100F02DFD002F02D0102097
:102E0C00C4F80403F8BD4FF404613E20FDF76EFADC
:102E1C00001000402005002008F501402DE9F0418C
:102E2C00184D074695F82D00C2070FD0164CD4F854
:102E3C00002242F00102C4F8002240F0020085F8A2
:102E4C002D0001263FB1012F0BD010E040F216717E
:102E5C003E20FDF74BFA084600F056FD6E722660D8
:102E6C0005E0084600F036FD0220687266600748EF
:102E7C00C66406480C30D0F840153846BDE8F04121
:102E8C0000F0BABC2005002000100040008000407B
:102E9C002DE9F0472C4C06002C4D94F82D00DFF852
:102EAC00B08040F00200894684F82D004FF00007F6
:102EBC0002D0012E20D036E0084600F025FD01207E
:102ECC006072E079012805D1D5F8000240F00800C5
:102EDC00C5F80002606A40F4801060624FF4801004
:102EEC00C8F800001B4931F819004FF47A7100F54D
:102EFC00FA70B0FBF1F716E0084600F0EBFC02208C
:102F0C006072E079012805D1D5F8000240F0040088
:102F1C00C5F80002606A40F4001060624FF40010C3
:102F2C00C8F80000292700F097FB06F02BFD20B114
:102F3C00FFF724FF0020BDE8F0870021304600F0A9
:102F4C005BFC3846F7E7000020050020001000402D
:102F5C0004F501405839000010B51DC8014981E83D
:102F6C001D0010BD1005002070B50F4C034602204B
:102F7C00207394F82150962094F82010227D012D76
:102F8C000ED000F01FFD206108480021C0F844114C
:102F9C002169E06908440549091DC1F8400570BD67
:102FAC0000F02EFDEFE7000020050020008000401F
:102FBC002DE9F04140220021134806F0ADFE00F04F
:102FCC0049FC06F0C0FD114D104E00240F4F083582
:102FDC00103628B906F0CEFD10B906F0D5FD08B1B3
:102FEC00242206E006F010FE10B906F003FE40B1F4
:102FFC004022FF21384606F08FFE2C603460BDE87D
:10300C00F0813822F5E7000020050020000E00407A
:10301C0010B500F0D3FBFFF7B1FE00F09BFD30B113
:10302C00401C04D040F2FC413E20FDF75FF90F48F4
:10303C000F4A416A41F044611160002444620473F8
:10304C00C461846100F0BAFB0A48C0F84841C0F87A
:10305C004441C0F84041C0F84C41012006F0F9FB56
:10306C00BDE81040012006F0E7BB00002005002061
:10307C0008F501400080004070B5012006F0E9FB26
:10308C00374C0020C4F8FC0F0120C4F8FC0F06F0EC
:10309C0091FD344D18B1286840F48060286006F02A
:1030AC007DFD28B12868304920F06900084328606C
:1030BC0006F090FD38B12B48001D016821F47F41CA
:1030CC0041F4B0510160274928483C31086000F0B8
:1030DC007BFD40B14FF08050D0F83003411C02D042
:1030EC002049103108604FF01020006E411C04D0B4
:1030FC001F490A6860F317420A6040F2031140F25C
:10310C005B60C4F83415C4F838050120C4F83005E8
:10311C0000F042F840F20120C4F850060220C4F836
:10312C00000214494FF040600860134900200886E3
:10313C001031C86181F82D00012006F07DFB1020B4
:10314C00C4F804034FF0E0210220C1F800010B4841
:10315C000068002802D0BDE87040004770BD000038
:10316C00001000403C170040960000802C000089A5
:10317C008C15004004F5014010050020D000002003
:10318C00014948757047000020050020014951F89D
:10319C0020007047AC390000084910B50875084983
:1031AC00012806D0022806D040F635513E20FDF706
:1031BC009DF8032000E00420086010BD20050020CD
:1031CC00101500400649C1F80405064911F82D2FC9
:1031DC0042F0010201F80529086000F009BA00006C
:1031EC000010004020050020014951F820007047D4
:1031FC00B83900002DE9F047304E314C88460700B5
:10320C0015464FF0010906D0012F12D040F2C371C0
:10321C003E20FDF76BF8104600F076FB294884F849
:10322C00099030F81510404600F01CFB054630465E
:10323C000CE0104600F04EFB0220607249F6BA71A9
:10324C00404600F00FFB05461C48001D00F0C8FA74
:10325C00DFF87480C8F84055DFF874A01B48CAF832
:10326C0010051020C6F80403606A4FF4002640F4E1
:10327C00002060621748066000F0EEF94146C8F87D
:10328C004C9011480C30D0F84005A84210D30020C7
:10329C00C1F84005CAF81405606A20F40020606289
:1032AC000C48001D0660FFF769FD0020BDE8F087A3
:1032BC002946384600F0A0FA0120F7E7001000403C
:1032CC00200500205839000000800040408100405B
:1032DC0098F0014004F501400D4B10B5D8719A726D
:1032EC0051B102201872012808D002280FD040F6E4
:1032FC00F1113E20FCF7FAFF0120F3E7587A02287F
:10330C0005D100F039F9BDE8104000F03FBA10BD0E
:10331C00200500200349020EC1F824250002C1F843
:10332C001C057047001000400149C1F83C0570476E
:10333C0000100040124A10B582F82C00002201291E
:10334C0006D0022902D04FF4377114E04FF080728E
:10335C000C490A430C490A600C4908430A49091DE7
:10336C0008600B48D0F85005C0B2032801D00B28D8
:10337C0004D14FF43D713E20FCF7B8FF10BD0000A6
:10338C002005002008011000141500400000030265
:10339C00001000400149887570470000200500208E
:1033AC002DE9F04753484FF0010AC0F84CA05148A2
:1033BC000C30D0F8406506F0E3FA4F4C002504F1D0
:1033CC00300181E8610000F0E1F84C49606A086066
:1033DC00DFF82C81656240F21D12D8F8001291437F
:1033EC00C8F8001284F82D5000F04AF905464148FF
:1033FC000830D0F840053F4FE0613F1DD7F840053D
:10340C00A06194F82100207D84F82000607A84F873
:10341C0021004FF000093146284600F07DF918B91B
:10342C00C8F810A04FF00109334EE807A6F11006BA
:10343C0020D1A8072FD506F0CDFBF0B906F0BAFBCA
:10344C00D8B930480068C0F3425CC0F3006300F0A8
:10345C000F02C0F30311C0F3032873B11AB111B1F9
:10346C00B8F1000F09D1C0F30440012805D1BCF11B
:10347C00030F02D23068804716E0A06A94F82C1033
:10348C004078884201D945F0040545F3800049464F
:10349C00401C726807E015F0280F05D045F3401169
:1034AC00B2684846491C9047E80601D5F068804749
:1034BC00607A02281CD1207B002819D0022804D065
:1034CC00012806D040F6154109E02169E06908445D
:1034DC0008E0E1692069884204D840F616413E2094
:1034EC00FCF704FFC7F84005BDE8F04700F058B9F9
:1034FC00BDE8F087008000402005002008F5014061
:10350C0000100040501400400B48817D0B48405C7B
:10351C0000F51660B0F5166F04D2A0F6381040F422
:10352C00807001E0A0F51660054AC2F8080501F0AC
:10353C007F00C2F854057047200500205E3900005A
:10354C000010004008B50B496B4691F91520897D98
:10355C0000F0A2FA9DF9000000F072FA0DF10100E2
:10356C0000F01CFB002804D040F27E513E20FCF7FA
:10357C00BDFE08BD200500200348017A012902D1B7
:10358C00807AFFF7DFBF7047200500200D4810B58B
:10359C00407A01280CD0022813D100F0E1FA00285F
:1035AC000FD0401C0DD040F657013E20FCF79EFE7C
:1035BC0000F0E8FA002804D0401C02D040F651017B
:1035CC00F3E710BD2005002008480021C0F80011C9
:1035DC00C0F80C11C0F81011C0F80411C0F8141187
:1035EC00C0F81811C0F80811704700000010004016
:1035FC00164810B590F82D00C10726D0810714D5B8
:10360C001348D0F8001241F00101C0F80012D0F8B4
:10361C005005C0B20B2805D00A2803D0032801D0CE
:10362C00022812D140F2A7510CE040070DD50848F2
:10363C0008490830C1F8140506F0A4F9002804D094
:10364C0040F2AF513E20FCF751FE10BD200500208A
:10365C000010004098F0014008480146C27991F8EA
:10366C002D1012B1012A03D006E041F0020101E055
:10367C0041F0040180F82D10FFF7BABF200500209F
:10368C002DE9F041214D0024287B28B12048D0F8A9
:10369C00440108B1012700E00027687A1D4E4FF461
:1036AC008671012802D0022806D016E0304606F0BA
:1036BC00E1F890B1082410E0304606F0DBF800B1D8
:1036CC000224D6F80004C04340F30000401C01D192
:1036DC0044F004040FB144F0010414F00B0F07D1B3
:1036EC004FF48871304606F0C5F808B144F0100468
:1036FC00FFF76AFFE00606D5200704D4687A012894
:10370C0001D144F020042046BDE8F08120050020C2
:10371C0000800040001000402DE9F0411A4C0D468D
:10372C00217A29B110F0110F07D0FFF727FB24E005
:10373C0000F090F8002020731FE0012901D0012631
:10374C0000E00026E07901280ED0002700F082F876
:10375C009621304600F094F801464FB13B358D422E
:10376C0004D90020BDE8F0810127EFE70120E071CA
:10377C00A27A3046FFF73EFD08B10120F2E740F691
:10378C0052213E20FCF7B2FD200500200348D0F862
:10379C00001241F48871C0F800127047001000400C
:1037AC000448416A41F48001416203494FF48000AE
:1037BC00086070472005002004F50140074A0020EE
:1037CC0008320649C2F840050A1DC2F84005C1F886
:1037DC00400502490C31C1F840057047008000409B
:1037EC000349C979002902D10249C1F8140570476F
:1037FC002005002098F0014010B5144A20B1012892
:10380C0011D040F2FA611CE001F12800C2E902106B
:10381C000F490E4800F0BCF9002815D0401C13D0FD
:10382C0040F2E9610DE001F12900C2E902100849FA
:10383C00064800F09BF9002806D0401C04D040F24A
:10384C00F6613E20FCF752FD10BD0000D4000020B4
:10385C008839000002480021C17101724172704721
:10386C0020050020054AD279012A06D04FF47A723D
:10387C0001F5FA71B1FBF2F1401A704720050020F6
:10388C0070B5134C03460D4694F8212000205AB114
:10389C00214691F8201063B1012B11D1012A284641
:1038AC0012D005F0ECFF09E040F604013E20FCF7D5
:1038BC001DFD012A284604D005F0EFFFE1690844FC
:1038CC0070BD00F0D1F8F9E700F0C0F8F6E70000A1
:1038DC002005002010B5FFF75FFCFFF715FEFFF782
:1038EC004BFEFFF753FF06F075F9002808D106F0E0
:1038FC0061F9002804D10348016841F4C02101603A
:10390C0010BD00006815004010B50446FFF744FCDC
:10391C00FFF7FAFD2046FFF715FE06F05BF90028CD
:10392C000DD0094A11685006022CD0F8200307D09C
:10393C00C0F3062021F4FE4141EA0020106010BDC6
:10394C00C0F30660F6E700008815004000002CA6C6
:10395C00E0A10406080A0C0E10121416181C1E20E6
:10396C00222426282A2C2E30323436383A3C3E403B
:10397C00424446484A4C4E021A50000001000000D6
:10398C0010110040000000000000000000000000CA
:10399C000000000000000000141E000030110000A8
:1039AC0000000000280000001800000000000000CB
:1039BC00141E000030110000000000007017000001
:1039CC00A00F000070B5054614460846FFF70CFC26
:1039DC0005EB4501C1EBC511C0EBC101074850F81F
:1039EC00240008444FF47A7100F6B730B0FBF1F5BF
:1039FC002046FFF7CBFB2844401D70BD983A0000D1
:103A0C0070B50E4D1C46083D0C4B35F8111000EBF3
:103A1C00400553F82230C5EBC01001EBC00003F693
:103A2C00B73318444FF47A71B0FBF1F51046FFF739
:103A3C00ADFB28442044401D70BD0000983A0000A6
:103A4C000149C0B2086070470C150040054A32F8B5
:103A5C0011104FF47A7201F2E731B1FBF2F1084424
:103A6C00801E7047903A0000054A32F811104FF44E
:103A7C007A7201F57A71B1FBF2F1084470470000DB
:103A8C00903A00000000DC05E80300000000000094
:103A9C00141E0000301100002DE9F8431E46174695
:103AAC000C46054600F0B6F8DFF8A490804699F86D
:103ABC000000A84210D199F801104846A1420BD140
:103ACC0090F90210B94207D1C278424504D18188DD
:103ADC0031808079B07037E03A462146012D09D00B
:103AEC00022D09D0042D09D0082D09D040F2054132
:103AFC0006200CE0002004E0012002E0032000E09E
:103B0C0002206B4600F00EF918B13D217520FCF730
:103B1C00EDFB2046FFF72AF90246002331469DF9BA
:103B2C00000000F047F8014689F807103188A9F821
:103B3C000410B17889F8061089F8005089F8014012
:103B4C0089F8027089F8038099F90700BDE8F883B9
:103B5C00820100200148006800680047EC0000204A
:103B6C000148006840690047EC000020014A1268D7
:103B7C00D2681047EC00002001490968C96A08475F
:103B8C00EC0000200148006800690047EC000020B0
:103B9C00014A126892681047EC000020014909683C
:103BAC00496A0847EC00002001490968896A0847FE
:103BBC00EC00002030B4034C24686468A44630BC8C
:103BCC0060470000EC0000200148007870470000BE
:103BDC008A01002009990000419900002B990000EE
:103BEC00199900002599000013990000079900000D
:103BFC00059900003D990000319900001F990000C3
:103C0C000D990000FF980000F7980000FB98000049
:103C1C00F19800000148007870470000F000002087
:103C2C0070B51C4C607800282DD10120607005F017
:103C3C00ABFFD8256FF0270628B905F0DBFF10B9CC
:103C4C0005F0E2FF38B1144A66F307006260C4E97C
:103C5C000250082013E005F06CFF40B905F073FF2B
:103C6C0028B905F087FF10B905F098FF60B10A4A32
:103C7C0066F3070031326260C4E90250042060F33D
:103C8C000701C4E9040170BD4FF4DB71742003F02B
:103C9C0085FB0000F0000020129E0000074A10B5C2
:103CAC005469103292F90420824205DD00F00AF8C2
:103CBC000349085C60F3070460B210BDF0000020FB
:103CCC00049E00000246154810B590F9040090427D
:103CDC0001DC0D2010BD1148083890F90400904209
:103CEC0001DB002010BD01B10121141A0B48103862
:103CFC004368185D0A4C24569442F3D0084C08448F
:103D0C003F34C0B2D2B2A342ECD10029EAD0012A8E
:103D1C0001D0022AE6D1401CC0B210BD0001002027
:103D2C00049E00002DE9F0411C4690460D460646C7
:103D3C006FF01507042804D81CB105F0FEFDA8424D
:103D4C0002D83846BDE8F0810548424650F82600B6
:103D5C0018B14057824200DD024622700020F1E784
:103D6C00D80A0020014800787047000008010020A4
:103D7C0005490A78904201D300207047496800EB4E
:103D8C00400001EB00107047080100200D4910B5F0
:103D9C0091F84A0020280FD091F84A00A1F59062C2
:103DAC0002EB401091F84A10406802EB41110A688E
:103DBC00BDE810400421104740F6AF01702003F01D
:103DCC00EDFA0000E009002070B50546202A28D045
:103DDC0019481A4C00EB831C03EB43030CEB420019
:103DEC002344202922D00CEB410140784C784870B8
:103DFC00204601460CEB4100914205704078F8D109
:103E0C0093F83220202A1ABF0CEB4202547083F82C
:103E1C00314020220CEB410C8CF8012083F832103D
:103E2C0070BD40F28121702003F0B8FA93F8304055
:103E3C00407883F83000DBE760090020E0090020BF
:103E4C002DE9F04F8FB015461E460C4602F016FABF
:103E5C00281846F10001CDE90110D4E90023801A9D
:103E6C0071EB0300C0F0E58008A8DDF860A00A90B3
:103E7C00BC480AEB4A010844099090F830502020C5
:103E8C000DF11C098DF81C00202D36D0B6480026EB
:103E9C0000EB8A1BB548D4E9007300EB451050F8D1
:103EAC00088FD0E9012118EB01017241791A73EBEB
:103EBC00020122D3E189C9B1C089B8B902F0DEFB95
:103ECC00B0F5C67F08BF0D200BD0A0F5407056385A
:103EDC0008BF1C2005D0A0F500709F3814BF3046D9
:103EEC003220401CB7EB0801814206DB0BEB45008E
:103EFC0089F800504578202DCCD10A9899F80010FB
:103F0C00202D0170DDF8289000F028819648974FFD
:103F1C0000EB8A100026049007EB451A0AF1080002
:103F2C00D4E90112D4F800B0D0E900831BEB0202F3
:103F3C007141B8EB020273EB010120D3C089002858
:103F4C0000F00C81E089002840F0088102F096FB1B
:103F5C00B0F5C67F08BF0D200BD0A0F540705638C9
:103F6C0008BF1C2005D0A0F500709F3814BF304648
:103F7C003220411CB8EB0B00884280F2EF8089F8AC
:103F8C0000509AF81800217C814207D2049800EB6B
:103F9C0045004578202DBFD100F0E0B89DF82000F9
:103FAC0007EB4010D0E90312D0F80890C08A19EB47
:103FBC00020541EB0608B0BBE089A0B302F05EFB42
:103FCC00B0F5C67F08BF0D200BD0A0F54070563859
:103FDC0008BF1C2005D0A0F500709F3814BF3046D8
:103FEC003220411CB5EB090088421CDA02F046FB7A
:103FFC00B0F5C67F08BF0D200BD0A0F54070563829
:10400C0008BF1C2005D0A0F500709F3814BF3046A7
:10401C0032209DF82010401C07EB4111D1E90223FE
:10402C00151843EB0608DDE90101491B70EB08008C
:10403C0003D20FB00020BDE8F08FC4E900581898E7
:10404C000B9008A80A9009980DF11C0A90F83050B2
:10405C0020208DF81C00202D37D043480B9900EB05
:10406C00811B00BF07EB4510D4E9008350F8089F73
:10407C00D0E9011219EB02027141B8EB020273EBA9
:10408C00010122D3E189C9B1C089B8B902F0F6FAAD
:10409C00B0F5C67F08BF0D200BD0A0F54070563888
:1040AC0008BF1C2005D0A0F500709F3814BF304607
:1040BC003220411CB8EB0900884206DB0BEB4500B3
:1040CC008AF800504578202DCCD10A989AF8001027
:1040DC00202D0170DDE90A8040D0234901EB8010CE
:1040EC00CDF80C0007EB451909F10800D4E90112D1
:1040FC00D4F800B0D0E900A31BEB02027141BAEB7B
:10410C00020273EB01011BD3C08938B3E08928BBD1
:10411C0002F0B4FAB0F5C67F08BF0D200BD0A0F5A5
:10412C004070563808BF1C2005D0A0F500709F3891
:10413C0014BF30463220411CBAEB0B0088420DDA1A
:10414C0088F8005099F81810207C8842BFF426AFEC
:10415C00039800EB45004578202DC3D10FB001200A
:10416C00BDE8F08FE0090020600900206005002008
:10417C002DE9F04383B0914604460D46984601AABA
:10418C006946184602F096F802F0E0F802F076F86C
:10419C0007461E4890F84A100026202909D00269CB
:1041AC0041698069831D46F10000D41841EB00057C
:1041BC0026E00A3445F10005B8F1000F17D002F0E3
:1041CC0097FBA0B902F05AFAB0F5C67F08BF0D20D4
:1041DC000BD0A0F54070563808BF1C2005D0A0F5B8
:1041EC0000709F3814BF3046322004197541B9F164
:1041FC00000F05D10098874202D9381A041975416D
:10420C0003B020462946BDE8F0830000E0090020F9
:10421C002DE9FF4F81B0054602984A4900EB40005A
:10422C000844002690F83040202092461070A1F5EA
:10423C009069202C36D0029909F5806000EB811B27
:10424C0009EB4410D5E9007350F8088FD0E901123E
:10425C0018EB02027141BA1A73EB010122D3E989FE
:10426C00C9B1C089B8B902F009FAB0F5C67F08BF68
:10427C000D200BD0A0F54070563808BF1C2005D07F
:10428C00A0F500709F3814BF30463220411CB7EBAC
:10429C000800884206DB0BEB44008AF800404478A7
:1042AC00202CCDD104989AF80010202C0170049F7A
:1042BC00029842D0244901EB80100090D5E90131DD
:1042CC00D5F800B009EB441808F108001BEB01020B
:1042DC0043EB0601D0E900A3BAEB020273EB010138
:1042EC001BD3C08948B3E88938BB02F0C7F9B0F5D5
:1042FC00C67F08BF0D200BD0A0F54070563808BF04
:10430C001C2005D0A0F500709F3814BF3046322019
:10431C00411CBAEB0B0088420FDA3C7098F818106D
:10432C00287C884203D305B00020BDE8F08F0098AC
:10433C0000EB44004478202CC0D105B00120BDE82E
:10434C00F08F0000E0090020600900202DE9FF5FDC
:10435C009EB01D4602F028FD04468B4601F0F6FF88
:10436C0006462098012818BF022805D04FF41C617E
:10437C004FF0700003F012F8FE4901200860FE496E
:10438C008968086000208DF83A000490401ECDE941
:10439C000600FA4808AF00EB451000F1080191E85F
:1043AC000E1087E80E10D0E90610CDE90C10089815
:1043BC0020F07F4005F0FAFA0246BDF82E809DF8F9
:1043CC002C00EF4B4044411C50189A4255D8ED4AF2
:1043DC0091425ADC524291425FDB591C8142DCBF54
:1043EC0000F5F700A0F1F85005DD0028BCBFA0F5E2
:1043FC00F70000F1F8501A90E348B8F1000FB0F84C
:10440C00A800ADF8380014BF4FF0010A4FF0000AB5
:10441C0002F06EFA1890BAF1000F0BD0DB48D0E91D
:10442C0010106FEA010171EA000002BF1898002811
:10443C00012701D04FF0000702F020F9B0F5C67F3C
:10444C0008BF0D200BD0A0F54070563808BF1C20BB
:10445C0005D0A0F500709F3814BF00203220002535
:10446C00A9461990464536D91A99F343DFF810C37B
:10447C00C8186D461CAA614504D94FF4B46170206C
:10448C0002F08CFFBF498B4204DD40F2A151702039
:10449C0002F084FFBE498B4204DA40F2A251702034
:1044AC0002F07CFFBB498142DCBF00F5F700A0F1B4
:1044BC00F85005DD0028BCBFA0F5F70000F1F8505E
:1044CC00294601F0F7FE0098089920F07F400090F3
:1044DC00081A20F07F45002F18BFDDF8649005D135
:1044EC009DF83800002818BF4FF00209E14371EA2B
:1044FC000B0022D0DDE90801221A7BEB01020CD261
:10450C00021B61EB0B01B2F5000271F1000111D33A
:10451C0040F60421702002F041FF221A6BEB0101DE
:10452C00B2F5000271F1000104D340F608217020AD
:10453C0002F034FF001B012803DA1E981C900320A4
:10454C000DE057B1914890F8480030B19DF8380013
:10455C0010F1000918BF4FF0020900201C9481448F
:10456C00DDE90802401B62F10001421E1C9B41F177
:10457C00FF3ED31A4B4506DB75B30A9BCDE9080108
:10458C002B440A9328E02DB19DF8390020B901F095
:10459C00D3FE08B1A7B90BE02FB99DF8380000285D
:1045AC0018BFA9F1020900258DF838502E4607E0F6
:1045BC009DF8380020B100208DF83800A9F10209CF
:1045CC00DDE90802401B62F10001421E1C9B41F117
:1045DC00FF3ED31A4B457CDB189B8BB9DFF8ACC183
:1045EC00DCE9103CDD4375EA0C0509D0C31A1998B7
:1045FC0061EB0C0C181A7CF1000038BF002000D3C2
:10460C0001203AEA000064D1DDE91E0116902098E1
:10461C001B970391F14615461890002702F02EF8CF
:10462C00B0F5C67F08BF0D200BD0A0F540705638F2
:10463C0008BF1C2005D0A0F500709F3814BF384669
:10464C0032200B30169A039BAA1A69EB0303101A3B
:10465C0073F1000029D21898012802D01B9848B198
:10466C0016E0E04370EA0B0026D140F607117020EB
:10467C0002F094FEE04370EA0B0009D01CD0601BE2
:10468C006BEB09010023D0F1040273EB010206DA93
:10469C002C46CB462046594602F066FA0CE0002226
:1046AC00101A72EB010014DB06E02C46CB462046B8
:1046BC00594602F059FA5746E04370EA0B0076D09F
:1046CC00089924F07F400B1A23F07F43DDF828C0B3
:1046DC0000E071E011EB0C01081A20F07F40012B77
:1046EC006AD3B3F5000F98BFB0F5000F64D824F06F
:1046FC007F4005F05BF91A99224B0D1A0022EB1A38
:10470C0072F1000219D3DFF87CC0421A0023B2EB1D
:10471C000C0C73F1000310D3194BAB423EBFC0F528
:10472C00902000F1F450451807D3934248D2C1F5BC
:10473C00902101F1F45108444542DFF8509099F86A
:10474C002A0050B32098012805D0022002F08EFCDC
:10475C00012002F08BFCB04543D2A5EB06024FF0D2
:10476C0001064FF000034FF00200009602F0CEFB62
:10477C00F0B313E008050040100100206005002094
:10478C00FF7F841E0040420F60090020E0090020DA
:10479C0000C0BDF00080841E09E016E0B8F1000FE7
:1047AC003CD00023A5EB0802012000962AE040F63D
:1047BC007A21702002F0F2FD22B00020BDE8F09FBB
:1047CC0040F67631702002F0E9FDB04534BF30463A
:1047DC0040461E30A842B5DB40F68E21702002F018
:1047EC00DDFD13D90120A5EB08020023009000E0A9
:1047FC003FE002F08BFBE0B386B101200090AA1BD6
:10480C000023022002F082FB98B307E056EA08006E
:10481C0004D040F6A311702002F0C0FD0120002648
:10482C0000902A463346304602F070FB08B3BAF1CA
:10483C00000F04BF99F84800002800D067B3D9E9ED
:10484C0010106FEA010171EA000007D001F01CFFA3
:10485C004FF0FF304FEA0001C9E9100117B3199866
:10486C000096221A6BEB0603052002F04FFB78B37F
:10487C0000E007E099F84800002804BF012089F8FF
:10488C00480017E0022002F0F1FB012002F0EEFBE1
:10489C0022B00020BDE8F09FD9E91010C94371EA9D
:1048AC00000010D099F8480020B1052002F0DEFB82
:1048BC0089F8486008F1190085420FDC40F6CC21DC
:1048CC00702002F06BFD01F0FBFE02F0FDFAC3E775
:1048DC00FFE740F2FA21702002F060FD2A1A012055
:1048EC0000900023032002F011FB20B115488068D2
:1048FC0006601548066004AC144894E80E10C0F825
:10490C008010C0F88420C0F88830C0F88CC008AC87
:10491C0094E80E10C0F89010C0F89420C0F89830AD
:10492C00C0F89CC00CAC94E80E10C0F8A010C0F8F5
:10493C00A420C0F8A830C0F8ACC022B00120BDE85B
:10494C00F09F0000100100200805004060090020C5
:10495C0070B51D4D95F84A00202818BF70BD95F80C
:10496C00492002EB4200284490F83040202C26D0FD
:10497C00164B03EB821101EB4401497880F830109F
:10498C00FF2085F8390085F84A402146022000F0C6
:10499C008BF8002085F8380085F82A000C4800EBCD
:1049AC004410007E002808BF02F062FE0020094976
:1049BC004968002908BF70BDBDE87040084740F247
:1049CC003131702002F0EAFCE0090020600900207F
:1049DC0060050020100100202DE9F05FDFF8B880A1
:1049EC0098F8495005EB4500404490F83140202C94
:1049FC0008BFBDE8F09FDFF8A4B0DFF8A490A9F5DC
:104A0C00806A09EB8517072617F8140001280ED0C9
:104A1C00042808BF02260AD005280CBF0326062846
:104A2C0005D04FF40D614FF0700002F0B7FCBBF1F4
:104A3C00000F18BFAFF30080EFF3108072B607EBD6
:104A4C0044014A7805EB4501414481F8312091F845
:104A5C003220A24204BF202281F83220A8B12A467B
:104A6C002146012000F020F80AEB4411D1E9002086
:104A7C003146904798F8495005EB4500404490F872
:104A8C003140202CBDD1BDE8F09F0648002818BF4E
:104A9C00AFF3008062B6E2E7E009002000000000FE
:104AAC006009002000000000DFF858C010B500239A
:104ABC000CEB821C07281FD2DFE800F0050505056A
:104ACC000404040001230CF81100002B08BF10BDD6
:104ADC0002EB42020C48024492F8320020280EBF2E
:104AEC0082F831100CEB4000417020200CEB41039C
:104AFC00587082F8321010BD40F25721702002F02D
:104B0C004DFC000060090020E00900202DE9F05F59
:104B1C000F468046DFF854B101EB47005844B8F11A
:104B2C00010F90F83040254618BFB8F1020F05D0A0
:104B3C0040F60C314FF0700002F030FC202D41D0CB
:104B4C009BF82A000026002808BF022602F006F86F
:104B5C00DFF81C9109EB441399681B690A1AC918F0
:104B6C00091A22F07F4221F07F41964299BFB2F59B
:104B7C00000FB1F5000F3F4A02EB871A20D92246ED
:104B8C000AEB42014C78202C12D009EB44139968A3
:104B9C001B69B1EB000CC918091A2CF07F4C21F0E1
:104BAC007F4166459CBFBCF5000FB1F5000FE6D800
:104BBC00202A05D03B4620210420FFF705F90446A6
:104BCC00AC4213D12C48002818BFAFF3008002F080
:104BDC007BF99BF84B20202A0BD0DBE90432841C98
:104BEC0041F1000C1B1B72EB0C0202D20020BDE841
:104BFC00F09F202D13D02B464246FFF7A7FB002831
:104C0C001EBF8BF84B500220BDE8F09F3B462A4656
:104C1C0020210420FFF7D8F80020BDE8F09FDBE945
:104C2C001001C04370EA010005D001F02DFD4FF0DA
:104C3C00FF30CBE910009BF8480028B1052002F0AA
:104C4C0015FA00208BF84800042002F00FFA02F04D
:104C5C0073FA0A4920208BF84B0089680020086001
:104C6C00074908600120BDE8F09F0000E009002022
:104C7C0060050020600900200000000010010020E9
:104C8C00080500402DE9F04FDFF8D4B106468FB08F
:104C9C009BF84A008A46202860D09BF84A100BF1FA
:104CAC001004ABF5906808EB411920218DF8181011
:104CBC009BF84910DBF8102001EB41015944002707
:104CCC0091F83050DBF8181051180A91DBF80000FD
:104CDC0009AA304407A901F0EDFAD9F81020079978
:104CEC00D9F8080051184018682E3CD35D490022B1
:104CFC00891B72EB070136D32168401A20F07F41E3
:104D0C00D1F5000172EB02012DD3A06008F5906083
:104D1C0084F810A090F849000DF1180B202D55D0F7
:104D2C0008F5806101EB801001904F48D4E9013106
:104D3C00D4F800A000EB451808F108001AEB0102AA
:104D4C0043EB0701D0E90093B9EB020273EB0101CD
:104D5C0025D3C08998B3E08948B137E040F6B33128
:104D6C00702002F01BFB0FB00120BDE8F08F01F0AA
:104D7C0085FCB0F5C67F08BF0D200BD0A0F54070A8
:104D8C00563808BF1C2005D0A0F500709F3814BF02
:104D9C0038463220411CB9EB0A00884216DA8BF8EF
:104DAC00005098F81800217C814209D321680A9898
:104DBC00401AA0600FB04FF00200BDE8F08F05E084
:104DCC00019800EB45004578202DAED1052002F06E
:104DDC004DF9234D4FF0FF30C5E9020095F84930ED
:104DEC009DF818202021202A03D00520FEF7ECFF87
:104DFC0004E003EB4300284490F8300095F8492078
:104E0C001A4901EB821195F84A2001EB42014870D6
:104E1C00286830442860FF2085F8390095F8370061
:104E2C008DF800009DF8000070B195F82100012864
:104E3C000AD1D4E901302268101843F10001401E58
:104E4C0041F1FF3101F03EFF9DF81800202803D0FE
:104E5C000748407802F076FB0FB00020BDE8F08FD9
:104E6C00E00900200040420F60050020600900208E
:104E7C0010010020F8B56E4D012705F59064002651
:104E8C00D4E91012072828BFF8BDDFE800F0047F32
:104E9C00A7BA5D4EC000C84370EA020005D101F00C
:104EAC000FFC02F011F8C4E91001E08B10B101F015
:104EBC001FFDA0B1FFF74CFDFF2084F83700D4E9AB
:104ECC000223D04370EA030004D00520009602F0C0
:104EDC001DF848B194F82100012817D109E04FF4CE
:104EEC000561702002F05AFA40F65801702002F069
:104EFC0055FA04F11000D0E90012A069081842EB31
:104F0C000601401E41F1FF3101F0DCFE94F84A002D
:104F1C0094F84A1005EB4010406805EB41110A6803
:104F2C0001B00121BDE8F040104794F8480060B191
:104F3C00C84370EA020005D101F0C2FB01F0C4FFC6
:104F4C00C4E9100184F84860F8BDFFF701FD4FF08B
:104F5C00FF30C4E9020094F837008DF800009DF88A
:104F6C00000070B194F84A0094F84A1005EB401018
:104F7C00406805EB41110A6801B00621BDE8F0401C
:104F8C00104740F67101702002F008FAFFF7E0FCC0
:104F9C0084F8367001F0ACFC30B1D4E91001C04398
:104FAC0070EA010005D00AE040F68901702002F099
:104FBC00F5F901F085FB01F087FFC4E9100194F8C5
:104FCC004A0094F84A1005EB4010406805EB41117B
:104FDC000A6801B00021BDE8F040104701F098F9D3
:104FEC00E08B10B101F084FC30B101F0A5F9002880
:104FFC0018BF84F82970F8BD40F69401702002F0B7
:10500C00CDF90C4807600C4880680760F8BDFFF7C5
:10501C009FFC94F84A0094F84A1005EB4010406845
:10502C0005EB41110A6801B00521BDE8F0401047BD
:10503C006005002008050040100100202DE9F34F09
:10504C00FB4897B00C460068FA4FC005C00D0ED057
:10505C00103840B20028B8BF00F00F0000F1E0207B
:10506C00ACBF90F8000490F8140D40090CD02078D7
:10507C004FF0000A002818BF012817D040F2217108
:10508C004FF0700002F08AF997F84A004FF0010ACD
:10509C00202806D0207848B140F21D71702002F013
:1050AC007DF940F21A71702002F078F9DFF888B3BC
:1050BC00BBF1000F04D0002140F22470AFF300804C
:1050CC000020CDE9100005A91291DC4917984FF08A
:1050DC00010801EB40100190BBF1000F04D000213E
:1050EC0040F22F70AFF30080B8F1000F09D000BF71
:1050FC0097F84960002587F83950BAF1000F07D0AE
:10510C003EE0CF48002818BFAFF3008062B6EFE74F
:10511C00B146012020EA0906CA48402200EB891159
:10512C0000EB861004F07EFDBBF1000F04D00021D3
:10513C0040F25D50AFF3008009EB490106EB4600ED
:10514C00394438440A8E028691F8321080F83210B5
:10515C00BBF1000F04D0002140F26150AFF300808E
:10516C00BBF1000F04D0002140F23970AFF3008086
:10517C0097F839008DF820009DF820000028ABD15D
:10518C00BBF1000F04D0002140F24370AFF300805C
:10519C0001F09AFE814602A80B9088462189284688
:1051AC0061F31F400146A27A284662F30700E27AB7
:1051BC0062F30F202278029562F31740CDE9045177
:1051CC00CDE906050395207880B3BDF816109E48EE
:1051DC00401A0B9901F10C0214A901F06BF8002292
:1051EC00BDF8163048464146FEF7C2FF8446E07AC9
:1051FC0000280CBF7A204C2062689DF814301044B3
:10520C00BDF81620CDE902C11A441044801C01F0EF
:10521C0035F8009604904A46434620690B99FEF7F0
:10522C000FFE002808BFCDE902984EE0FFE7484684
:10523C00414600F09BFFDFF814C2024610EB0C0C49
:10524C000B4641F1000ED4E90401B0EB0C0C71EBF0
:10525C000E0C31D2293243F10003821A71EB030296
:10526C002AD32289521CB0EB020C61EB0508801A80
:10527C0071EB05003CBF4FF0000CE046129800901B
:10528C0014AB0BAA6046414600F094FFE07A00286C
:10529C000CBF7A204C200B99228908446168114478
:1052AC000844801C00F0EAFFDDE91412CDE902127B
:1052BC00401A20F07F4007E0B9F1010148F1FF30BE
:1052CC00CDE902104FF47A700490BBF1000F04D0BA
:1052DC00002140F24A70AFF300805A49DDF85C803F
:1052EC0001EB8611099111F8181002A8012918BFB9
:1052FC00022941D11195029A29F07F41531ADDF808
:10530C0010C023F07F4312EB0C02511A21F07F41A5
:10531C00022B74D3B3F5000F98BFB1F5000F6ED804
:10532C00012514AB0EAA3146FEF772FF00286DD092
:10533C009DF838109DF8502033468A426AD00520DB
:10534C00FEF742FD099901EB480148709DF83800C1
:10535C00202801BF06EB4600384480F830801195B8
:10536C001EBF099901EB400080F80180324641468E
:10537C005FF00300FFF798FBBBF1000F04D0002196
:10538C0040F24F70AFF300803148002818BFAFF3E4
:10539C000080EFF3108872B6BBF1000F04D000212F
:1053AC0040F25570AFF3008097F839008DF820006B
:1053BC009DF8200000287FF48FAEBBF1000F04D0C5
:1053CC00002140F25D70AFF300800DF1040E9EE8F9
:1053DC000F1000F1080E8EE80E10DDE90612C0E980
:1053EC00061225B3BBF1000F04D0002140F26A7005
:1053FC00AFF30080BAF1000F46D12BE0FFE7324645
:10540C0041460420FFF750FB0125B5E732464146E3
:10541C000420AFE720291DBF099800EB410040781C
:10542C0006EB460004BF384490F830008AE73BE0B6
:10543C0004ED00E0E0090020000000006005002001
:10544C000000000060090020FF7F841E0040420F16
:10545C0000000000119810F0FF0F15D097F84A00CB
:10546C00202811D1BBF1000F04D0002140F26F7045
:10547C00AFF3008031460220FFF748FB109018B9BB
:10548C00207800B301282ED0BBF1000F04D00021EE
:10549C0040F28C70AFF30080FF20BAF1000F18BF00
:1054AC0087F8390029D00125BBF1000F04D0002169
:1054BC0040F29D70AFF300801098344C022825D038
:1054CC0001282BD02FE0BBF1000F04D0002140F2BB
:1054DC007770AFF3008097F8492004201799FFF7F5
:1054EC00E3FA0125E0E7BBF1000F3FF4F5AD002135
:1054FC0040F28270AFF30080EEE597F8492001216D
:10550C00914387F8491087F83900CCE73869B0EB3C
:10551C00090004F04BFA616821B904E061684FF0AE
:10552C00FF3001B18847B8F1000F28D0BBF1000F54
:10553C0004D000214FF4F660AFF300809DB197F8D2
:10554C00490000EB4000384490F8310020280AD084
:10555C00BBF1000F04D0002140F2B770AFF3008014
:10556C00607801F0EFFFBBF1000F04D0002140F296
:10557C00BC70AFF3008019B02846BDE8F08F04482A
:10558C00002818BFAFF3008062B6CFE710010020EF
:10559C00000000002DE9F04F0446007895B018B1DA
:1055AC0015B00020BDE8F08FD5480068C005C00DCF
:1055BC000ED0103840B20028B8BF00F00F0000F138
:1055CC00E020ACBF90F8000490F8140D4009E7D02F
:1055DC000BA80F90DFF82C93B9F1000F04D0002129
:1055EC0040F2E950AFF30080DFF81C8398F8496073
:1055FC00002588F839500395B9F1000F04D000212B
:10560C0040F2EE50AFF30080012020EA060ABF48BA
:10561C00402200EB861100EB8A1004F003FBB9F179
:10562C00000F04D0002140F25D50AFF3008006EB78
:10563C0046010AEB4A00414440440A8E028691F826
:10564C00321080F83210B9F1000F04D0002140F272
:10565C006150AFF30080B9F1000F04D0002140F28B
:10566C00F350AFF3008001F02FFC0F460646218962
:10567C00284661F31F400146A27A284662F30700D0
:10568C000246E07A0DF1200B60F30F22207808958A
:10569C0060F31742CDE90A51CDE90C250995207824
:1056AC0088B3BDF82E009A490BF10C02081A11A907
:1056BC0000F000FE0022BDF82E3030463946FEF7D1
:1056CC0057FD0346E07A8C4600280CBF7A204C200C
:1056DC0061689DF82C200844BDF82E10CDE9083CDB
:1056EC0011440844801C00F0C9FDCDF800A00A90BC
:1056FC0032463B4659462069FEF7A2FB002808BFFC
:10570C00CDE908674DE0FFE73046394600F02EFD45
:10571C00804B024610EB030C8B4641F10003D4E99D
:10572C000401B0EB0C0C71EB030332D229324BF1B8
:10573C000003821A71EB03022BD32289521CB0EBAB
:10574C00020B61EB050C801A71EB05003CBF4FF0AE
:10575C00000BDC460F98009012AB07AA5846614626
:10576C0000F028FDE07A00280CBF7A204C20079925
:10577C0022890844616811440844801C00F07EFDB5
:10578C000146DDE91202CDE90802081A20F07F403B
:10579C0006E0711E47F1FF30CDE908104FF47A7026
:1057AC000A90B9F1000F04D0002140F2F950AFF388
:1057BC000080D8E90510D8F81020101898F84A2065
:1057CC006941202A09D0DDE90823121A73EB010282
:1057DC0003D2CDE9080101200390B9F1000F04D0E8
:1057EC00002140F20460AFF30080089926F07F405E
:1057FC000A1A0A9B22F07F42C918081A20F07F402F
:10580C00B2F5000F98BFB0F5000F0BD832463B46EF
:10581C0008A94048CDF800A0FEF712FB03990843F5
:10582C0047D160E0BDF82EB005AA01A9584600F09A
:10583C0041FD00F08BFD00F021FD824698F84A00F6
:10584C0020280CD0D8E90520D8F8103010F1060C1F
:10585C0045F1000013EB0C0642EB000724E00A367E
:10586C0047F10007BBF1000F17D001F041F8A0B9C8
:10587C0000F004FFB0F5C67F08BF0D210BD0A0F5DA
:10588C004070563808BF1C2105D0A0F500709F3819
:10589C0014BF294632218E196F410198824503D9D4
:1058AC00AAEB000086196F411F20CDE908678DF81F
:1058BC002C00DDE9080100F059FCBDF82E208218FF
:1058CC009DF82C006941101841EB0502411C42F176
:1058DC000000C4E90410B9F1000F04D0002140F21B
:1058EC001E60AFF3008098F839008DF800009DF829
:1058FC00000000287FF46EAE15B00120BDE8F08FDB
:10590C0004ED00E000000000E00900206009002028
:10591C00FF7F841E0040420F2DE9F14F9D4D8CB04E
:10592C0095F8490000200790089001209A4CA5F1A9
:10593C0080094FF000080746069024B1002140F280
:10594C00CD70AFF30080069800283CD085F83980E4
:10595C0024B1002140F2D270AFF3008095F849A039
:10596C00402227EA0A0609EB861009EB8A118346C6
:10597C0004F058F924B1002140F25D50AFF30080DF
:10598C0006EB46000AEB4A012844294400900A8E93
:10599C00028691F8321080F8321024B1002140F2C6
:1059AC006150AFF3008095F839008DF808009DF830
:1059BC00080078B1002C1CBF00214FF4FB60BCD058
:1059CC00AFF30080B9E77548002818BFAFF300802B
:1059DC0062B6BBE724B1002140F2DC70AFF300806B
:1059EC000C981BF8100003287ED1009A0C9992F8A1
:1059FC003000884214BF4FF0000A4FF0010A02F148
:105A0C00300C8346202209EB861303E0024603EB9D
:105A1C0042004078884202D020280AD0F6E720289D
:105A2C0007D0834507D103EB4B0040788CF800007E
:105A3C0007E040460CE003EB400003EB42014078EA
:105A4C00487024B1002140F2C540AFF300803846C5
:105A5C00C34610EA0A0F18BFBB4600284ED024B12B
:105A6C00002140F2E170AFF30080324601200C9926
:105A7C00FFF71AF824B1002140F2EA70AFF300806E
:105A8C004748002818BFAFF30080EFF3108072B6C0
:105A9C00069024B1002140F2EF70AFF3008095F82E
:105AAC0039008DF808009DF8080038B1002C1CBF97
:105ABC00002140F2F3703FF440AF81E7BBF1000FDF
:105ACC0009D095F84A00202805D131460220FFF76D
